:020000040800F2
:10000000900E00208D0400086102000863020008C1
:10001000670200086B0200086F0200080000000081
:100020000000000000000000000000007302000853
:10003000750200080000000077020008790200083D
:10004000A7040008A7040008A7040008A7040008E4
:10005000A7040008A7040008A7040008A7040008D4
:10006000A7040008A7040008A7040008A7040008C4
:10007000A7040008A7040008A7040008A7040008B4
:10008000A7040008A7040008A7040008A7040008A4
:10009000A7040008A7040008A7040008A704000894
:1000A000A7040008A7040008A7040008DD49000809
:1000B000A7040008A7040008A7040008A704000874
:1000C000A7040008A7040008A7040008A704000864
:1000D000A704000889710008B37200083174000891
:1000E000A7040008A7040008A7040008A704000844
:1000F000B9630008A7040008A7040008A7040008C3
:10010000A7040008A7040008D3460008A7040008B5
:1001100053750008A7040008A7040008C16100087F
:10012000A7040008A7040008A7040008A704000803
:10013000A7040008A7040008A7040008A7040008F3
:10014000A7040008A7040008A7040008A7040008E3
:10015000A7040008A7040008A7040008A7040008D3
:10016000A7040008A7040008A7040008A7040008C3
:10017000A7040008A7040008A7040008A7040008B3
:10018000A7040008A7040008DFF810D007F0DCFD82
:1001900000480047A1010008AFF30080900E002046
:1001A00007F0CEFA07F09AFA5F21032005F0A1F9D3
:1001B0002F2385228F21262005F045F94BE0264884
:1001C0000068D0B902F017FD02F057FD02F01AFEE8
:1001D00002F05DFE02F0FAFE02F03DFF02F0FBFFCE
:1001E00003F03EF803F0DBF803F01EF903F0CBF95F
:1001F00003F063FA0D20194908601748001D0068D4
:1002000018BB4FF4165007F0C1F84FF4165007F022
:100210004DF902F0F0FC02F030FD02F0F3FD02F0C7
:1002200036FE02F0D3FE02F016FF02F0D4FF03F018
:1002300017F803F0B4F803F0F7F803F0A4F903F0AB
:100240003CFA0D200549086005E000231A461946CE
:10025000184603F059FCB2E70002424200000020B9
:10026000704700BFFEE700BFFEE700BFFEE700BF2C
:10027000FEE7704770477047704700000CB50020DC
:10028000019000907648006840F48030744908601E
:1002900000BF7348006800F4003000900198401CD3
:1002A0000190009818B90198B0F5A04FF1D16C48B1
:1002B000006800F4003010B10120009001E000203F
:1002C00000900098012846D165484030006840F011
:1002D00080506349403108606248006840F4404003
:1002E000604908605E48083000685D490831086070
:1002F0000846006840F4004008600846006840F482
:10030000A05008605848091F0860081F006840F0A6
:100310008070091F086000BF5148006800F000703D
:100320000028F9D040F20570504908604C48083068
:10033000006820F003004A49083108600846006858
:1003400040F00200086000BF45480830006800F037
:100350000C000828F8D10CBD10B54548006840F4E1
:100360007000434908603E48006840F001003C4985
:10037000086000203A4908310860394800683D4962
:100380000840374908603C48091D0860081F00689C
:1003900020F48020091F0860002031490C310860DA
:1003A000FFF76CFF4FF0006031498039086010BDE5
:1003B00070B500200022022300240221284D0835B8
:1003C0002D6805F00C0020B1042806D0082834D18F
:1003D00007E02A4D2A4E356033E02A4D284E35601D
:1003E0002FE01F4D2D1D2D68C5F380541C4D2D1D74
:1003F0002D6805F03F0154B1224DB5FBF1F5184EC3
:10040000361D3668C6F3881605FB06F209E01B4D5B
:10041000B5FBF1F5124E361D3668C6F3881605FB9E
:1004200006F20F4D2D1D2D68C5F301456D1C6B00A7
:10043000B2FBF3F5124E356003E0104D104E3560FF
:1004400000BF00BF064D08352D68C5F303150E4EDD
:10045000705D0B4D2D68C540094E356070BD0000C4
:10046000003802400070004008544007003C024041
:1004700088ED00E0FFFFF6FE103000240024F400B9
:100480000800002000127A000C0000200648804777
:1004900006480047FEE7FEE7FEE7FEE7FEE7FEE769
:1004A000FEE7FEE7FEE7FEE75903000889010008C2
:1004B00032490143324A1160704770B50021002370
:1004C0000F22C4781CB32E4C246804F4E064C4F5F5
:1004D000E064C4F30721C1F10404E3B20A414478A3
:1004E0009C40E1B28478144021430C07210E254C36
:1004F00005786155047804F01F050124AC400578A7
:100500006D11AD0005F1E025C5F8004109E0047862
:1005100004F01F050124AC401B4D0678761145F808
:10052000264070BD194A0A400243154B1B1F1A6032
:10053000704739B1124A121D12680243104B1B1D3D
:100540001A6006E00E4A121D126882430C4B1B1DF6
:100550001A607047042808D14FF0E021096941F082
:1005600004014FF0E022116107E04FF0E02109693A
:1005700021F004014FF0E022116170470000FA05FC
:100580000CED00E000E400E080E100E080FFFF1FF0
:1005900010B504469848844208D10121084600F06D
:1005A00086FB0021012000F082FB76E09348844224
:1005B00008D10121022000F07AFB0021022000F086
:1005C00076FB6AE08E48844208D10121042000F0C5
:1005D0006EFB0021042000F06AFB5EE08948844243
:1005E00008D10121082000F062FB0021082000F062
:1005F0005EFB52E08448844208D10121102000F0C3
:1006000056FB0021102000F052FB46E07F48844258
:1006100008D10121202000F04AFB0021202000F019
:1006200046FB3AE07A48844208D10121402000F09C
:100630003EFB0021402000F03AFB2EE0754884424A
:1006400008D10121802000F032FB0021802000F041
:100650002EFB22E07048844208D10121801500F071
:1006600026FB0021A01500F022FB16E06B48844217
:1006700008D10121401500F01AFB0021601500F09F
:1006800016FB0AE06648844207D10121001500F0FC
:100690000EFB0021201500F00AFB10BDF0B50A4644
:1006A00000210023002400BF3DE0012505FA01F3ED
:1006B000156805EA03049C4234D105684F000326FF
:1006C000BE40B543056015794E00B5400668354318
:1006D00005601579012D02D01579022D16D1856896
:1006E0004F000326BE40B543856055794E00B540A6
:1006F000866835438560456801268E40B543456070
:10070000456896798E40B6B235434560C5684F005E
:100710000326BE40B543C560D5794E00B540C668D6
:100720003543C560491C1029BFD3F0BD4FF6FF719A
:1007300001600021017141718171C171704708B57B
:100740004FF480320092009A0A430092009AC261EC
:10075000C161009AC261C2690092C269009208BD7B
:100760000246002013690B400BB1012000E000207D
:1007700070470146086980B27047024600205369FD
:100780000B400BB1012000E0002070470146486992
:1007900080B2704701837047418370470AB101837B
:1007A00000E0418370474161704742694A404261BD
:1007B0007047F0B5002300244D07ED0E02FA05F353
:1007C000CE1000F1200555F826504E07F70E0F26E3
:1007D000BE40B543CF1000F1200646F82750CE109A
:1007E00000F1200555F8265045EA0304CE1000F12B
:1007F000200545F82640F0BD0000024000040240FC
:1008000000080240000C02400010024000140240A8
:1008100000180240001C0240002002400024024058
:1008200000280240F948006840F00100F7490860DC
:100830000020F64908310860F4480068F44908408F
:10084000F2490860F348091D0860F348EF49843114
:100850000860F0481038091D0860EC48006820F472
:100860008020EA4908600020E8490C310860E74927
:100870008C31086070470021E44A921C11701146C7
:100880000870704710B501460022002300204A116D
:10089000012A02D1DD4C236808E0022A03D1DB4C97
:1008A0007034236802E0D94C7434236801F01F02CD
:1008B000012494401C400CB1012000E0002010BD38
:1008C00038B5002000900024002500BF3120FFF73C
:1008D000D9FF05460098401C00900098B0F5A04F45
:1008E00001D0002DF2D03120FFF7CCFF08B1012458
:1008F00000E00024204638BD01460020C34A1068AD
:1009000020F0F80040EAC10010607047C349086059
:1009100070470021BD4A703211701170012802D059
:1009200004280AD104E00121B84A7032117005E0B0
:100930000521B64A7032117000E000BF00BF704759
:10094000B7490860704770B5049C41EA82150126DA
:10095000C6EB530645EA0645054345EA0465AB4E3A
:10096000361D356070BDAD4908667047820142EAA8
:100970000172A64B84331A607047A8498866704795
:1009800010B5830143EA016343EA02739F4C883444
:10099000236010BDA14908677047A049C86470472B
:1009A00002460020994B0833186820F0EC6042EAB8
:1009B00001031843954B0833186070470246002026
:1009C000924B0833186820F0784042EA010318433C
:1009D0008E4B083318607047014600208B4A08325E
:1009E000106820F003000843106070478748083003
:1009F000006800F00C00704701460020834A08326E
:100A0000106820F0F0000843106070470146002095
:100A10007E4A0832106820F4E050084310607047A6
:100A200001460020794A0832106820F4604040EA0C
:100A3000C10010607047F0B500210022002402259B
:100A400000260223714F08373F6807F00C0121B1DF
:100A5000042905D0082937D105E0724F076036E038
:100A6000714F076033E0694F3F1D3F68C7F3805601
:100A7000664F3F1D3F6807F03F036EB16A4FB7FBFB
:100A8000F3F7DFF888C10CF1040CDCF800C0CCF3FC
:100A9000881C07FB0CF40CE0624FB7FBF3F7DFF8A0
:100AA0006CC10CF1040CDCF800C0CCF3881C07FB13
:100AB0000CF4564F3F1D3F68C7F301477F1C7D0074
:100AC000B4FBF5F7076002E0564F076000BF00BFB8
:100AD0004E4F08373F6807F0F0010909534F7A5C21
:100AE0000768D7404760494F08373F6807F4E0512F
:100AF000890A4E4F7A5C4768D7408760434F083772
:100B00003F6807F46041490B484F7A5C4768D7401B
:100B1000C760F0BD002100F44072B2F5407F0AD1F9
:100B20003A4A0832116821F4F811414A024011434F
:100B3000364A08321160354A70321268C0F30B032E
:100B40001A43324B70331A60704735494439086094
:100B5000704733494039086070473649086070472C
:100B600001460020294A8C32106820F01F004A1EDE
:100B70001043264A8C321060704701460020234AF9
:100B80008C32106820F4F8504A1E40EA02201F4AB6
:100B90008C3210607047014600201C4A8C3210686D
:100BA00020F4401008431060704701460020174AA7
:100BB0008C32106820F440000843106070470146F2
:100BC0000020124A8C32106820F440300843106034
:100BD000704719490860704739B10C4A30321268C1
:100BE00002430A4B30331A6006E0084A303212687A
:100BF0008243064B30331A607047F9B1034A3432EE
:100C000012680243014B34331A601CE00038024082
:100C1000FFFFF6EA103000240030002000004742B9
:100C2000800E47420024F40000127A001C000020CD
:100C3000FFFCFF0F5C014742E01147428F4A1268F8
:100C400082438E4B1A60704739B18C4A121D12686C
:100C500002438A4B1B1D1A6006E0884A121D126867
:100C60008243864B1B1D1A60704739B1834A0C3290
:100C700012680243814B0C331A6006E07F4A0C3243
:100C8000126882437D4B0C331A60704739B17B4A3E
:100C9000103212680243794B10331A6006E0774A2B
:100CA000103212688243754B10331A60704739B1A5
:100CB000724A243A12680243704B243B1A6006E0E1
:100CC0006E4A243A126882436C4B243B1A60704788
:100CD00039B16A4A203A12680243684B203B1A60D5
:100CE00006E0664A203A12688243644B203B1A6051
:100CF000704739B1614A1C3A126802435F4B1C3B92
:100D00001A6006E05D4A1C3A126882435B4B1C3B4A
:100D10001A60704739B1594A143A12680243574B66
:100D2000143B1A6006E0554A143A12688243534B4A
:100D3000143B1A60704739B1504A103A12680243A6
:100D40004E4B103B1A6006E04C4A103A1268824340
:100D50004A4B103B1A60704739B1484A1C3212683E
:100D60000243464B1C331A6006E0444A1C321268A8
:100D70008243424B1C331A60704739B13F4A2032DC
:100D8000126802433D4B20331A6006E03B4A203292
:100D900012688243394B20331A60704739B1374AA1
:100DA000243212680243354B24331A6006E0334A7A
:100DB000243212688243314B24331A60704739B1B0
:100DC0002E4A2C32126802432C4B2C331A6006E058
:100DD0002A4A2C3212688243284B2C331A607047FF
:100DE00039B1264A303212680243244B30331A603C
:100DF00006E0224A303212688243204B30331A60B8
:100E00007047012808D11D493C31096841F00801AB
:100E10001A4A3C32116007E018493C31096821F058
:100E20000801164A3C321160704739B1134A273A1B
:100E300012780243114B273B1A7006E00F4A273AFB
:100E4000127882430D4B273B1A7070470B48403095
:100E5000006840F0807009494031086070470146E1
:100E60000020064A283A12680A400AB1012000E030
:100E70000020704701492639087070473438024015
:100E800010B50446FE48844208D101210846FFF708
:100E900052FF00210120FFF74EFF9DE0B4F1804F8B
:100EA00008D101210846FFF735FF00210120FFF797
:100EB00031FF91E0F348844208D101210220FFF77D
:100EC00029FF00210220FFF725FF85E0EE4884423C
:100ED00008D101210420FFF71DFF00210420FFF7A6
:100EE00019FF79E0E948844208D101210820FFF781
:100EF00011FF00210820FFF70DFF6DE0E448844258
:100F000008D101211020FFF705FF00211020FFF775
:100F100001FF61E0DF48844208D101212020FFF772
:100F2000F9FE00212020FFF7F5FE55E0DA48844263
:100F300008D101210220FFF7FEFE00210220FFF769
:100F4000FAFE49E0D548844209D101210804FFF79F
:100F5000F2FE00214FF48030FFF7EDFE3CE0D04878
:100F6000844209D101214804FFF7E5FE00214FF436
:100F70000030FFF7E0FE2FE0CA48844209D101218A
:100F80008804FFF7D8FE00214FF48020FFF7D3FE3E
:100F900022E0C548844208D101214020FFF7BAFE73
:100FA00000214020FFF7B6FE16E0C048844208D179
:100FB00001218020FFF7AEFE00218020FFF7AAFE6E
:100FC0000AE0BB48844207D101218015FFF7A2FE49
:100FD0000021A015FFF79EFE10BD00220288A84B3D
:100FE00098420ED0AC4B98420BD0B0F1804F08D055
:100FF000A44B984205D0A44B984202D0A34B9842F0
:1010000004D14FF68F731A404B881A43A04B984275
:1010100007D0A04B984204D04FF6FF431A400B89EB
:101020001A4302804B68C3620B880385944B984235
:1010300002D0994B984201D18B7A03860123838297
:1010400070474FF0FF3141600021018001814180F4
:10105000817270470185828270470A4600210188AB
:101060004FF68F73194011430180704741627047FA
:10107000C16270470146486A70470146088D704753
:1010800021B1028842F00202028004E002884FF699
:10109000FD731A400280704721B1028842F00402B9
:1010A000028004E002884FF6FB731A40028070470A
:1010B00021B1028842F08002028004E002884FF6EB
:1010C0007F731A400280704702884FF6F7731A4008
:1010D000028002880A430280704702884FF6FF436D
:1010E0001A40028002880A430280704721B10288B8
:1010F00042F00102028004E002884FF6FE731A40BB
:101100000280704770B5002400220023058C4FF642
:10111000FE7635400584028C8388048B4FF68F75EC
:101120002C40B51E2C400D882C43751E2A408D89FD
:101130002A434D882A43524DA84202D0564DA84218
:1011400013D14FF6F7752A40CD892A434FF6FB7528
:101150002A408D882A434FF6FF652B404FF6FF55F6
:101160002B400D8A2B434D8A2B43838004838D684B
:101170004563028470BD70B5002400220023058CF5
:101180004FF6EF7635400584028C8388048B48F651
:10119000FF752C404FF6FF452C400D884FF6FF762B
:1011A00006EA05252C434FF6DF752A408D8906EAAD
:1011B00005152A434D8806EA05152A43304DA842F5
:1011C00002D0354DA8421DD14FF67F752A40CD89FA
:1011D0004FF6FF7606EA05152A434FF6BF752A40FB
:1011E0008D8806EA05152A434FF6FF352B404FF24E
:1011F000FF752B400D8A06EA85052B434D8A06EACA
:1012000085052B43838004838D688563028470BDCC
:1012100070B5002400220023058C4FF6FF66354090
:101220000584028C8388848B4FF68F752C404FF693
:10123000FC752C400D882C434FF6FF552A408D89B4
:101240004FF6FF7606EA05252A434D8806EA05256E
:101250002A430B4DA84202D00F4DA84238D14FF27D
:10126000FF752A40CD894FF6FF7606EA05252A4309
:101270004FF6FF352A408D8806EA05252A4319E0F6
:10128000000001400004004000080040000C004045
:1012900000100040001400400004014000400140E4
:1012A000004401400048014000180040001C00407C
:1012B000002000404EF6FF752B404DF6FF752B4089
:1012C0000D8A06EA05152B434D8A06EA05152B43C0
:1012D000838084838D68C563028470BD70B50022ED
:1012E00000230024058C4EF6FF7635400584038CE0
:1012F0008488828B48F6FF752A404FF6FF452A40C6
:101300000D884FF6FF7606EA05252A434DF6FF7550
:101310002B408D8906EA05352B434D8806EA0535B5
:101320002B43FE4DA84202D0FD4DA84208D14BF6FA
:10133000FF752C400D8A4FF6FF7606EA85152C4383
:10134000848082838D680564038470BD00210180E0
:101350004180818081608181C181018241827047A9
:1013600070B50346002000241846183001258D4032
:10137000ACB21D8CA5431D8409B108290AD100EB2C
:10138000610005684FF68F763540056005681543A6
:1013900005600FE00D1FC5F34E052844056848F6AB
:1013A000FF763540056005684FF6FF7606EA0226AF
:1013B0003543056070BD4163704781637047C16309
:1013C0007047016470470A460021018B4FF68F7306
:1013D00019401143018370470A460021018B48F6EA
:1013E000FF7319404FF6FF7303EA02231943018389
:1013F00070470A460021818B4FF68F7319401143C5
:10140000818370470A460021818B48F6FF7319409B
:101410004FF6FF7303EA02231943818370470A469C
:101420000021018B4FF6F773194011430183704778
:101430000A460021018B4FF2FF7319404FF6FF73EC
:1014400003EA02231943018370470A460021818B76
:101450004FF6F77319401143818370470A46002104
:10146000818B4FF2FF7319404FF6FF7303EA02239B
:101470001943818370470A460021018B4FF6FB73A5
:1014800019401143018370470A460021018B4FF632
:10149000FF3319404FF6FF7303EA02231943018318
:1014A00070470A460021818B4FF6FB7319401143A8
:1014B000818370470A460021818B4FF6FF33194024
:1014C0004FF6FF7303EA02231943818370470A46EC
:1014D0000021018B4FF67F73194011430183704740
:1014E0000A460021018BC1F30E014FF6FF7303EA98
:1014F00002231943018370470A460021818B4FF66E
:101500007F7319401143818370470A460021818B04
:10151000C1F30E014FF6FF7303EA022319438183DF
:1015200070470A460021018C4FF6FD7319401143A4
:10153000018470470A460021018C4FF6F773194069
:101540001143018470470A460021018C4FF6DF7376
:1015500019404FF6FF7303EA0213194301847047E1
:101560000A460021018C4FF67F7319404FF6FF7336
:1015700003EA02131943018470470A460021018CD3
:101580004FF6FF5319404FF6FF7303EA0223194346
:10159000018470470A460021018C4FF2FF73194005
:1015A0004FF6FF7303EA02231943018470470A468A
:1015B0000021018C4DF6FF7319404FF6FF7303EACB
:1015C000023319430184704730B5002301248C4055
:1015D000A3B2048C9C430484048C02FA01F5ADB2DE
:1015E0002C43048430BD30B5002304248C40A3B2C6
:1015F000048C9C430484048C02FA01F5ADB22C43A4
:10160000048430BD828B4FF2FF331A408283828B79
:101610004FF6FF7303EA01231A4382837047F0B544
:101620000C461546002100220026078C4EF6FF7C52
:1016300007EA0C070784818B028C4FF6FF7707EAD5
:10164000043640F6FF4739404FF6FF7707EA052793
:1016500039434FF6FF7707EA0337394345F6FF77FB
:101660003A4046F480573A4381830284F0BD828B2E
:101670004FF6F3731A408283828B0A43828370474A
:10168000F0B50C461546002100220026078C4FF6C7
:10169000FF6C07EA0C070784818B028C4FF6FF77FB
:1016A00007EA04264FF60C7739404FF6FF7707EA32
:1016B00003172F4339434FF2FF573A4046F48077E0
:1016C0003A4381830284F0BD028B4FF2FF331A400C
:1016D0000283028B4FF6FF7303EA01231A4302834E
:1016E0007047F0B50C461546002100220026078CF5
:1016F0004FF6EF7C07EA0C070784018B028C4FF64C
:10170000FF7707EA041640F6FF4739404FF6FF77A8
:1017100007EA033739434FF6FF7703E00000014043
:101720000004014007EA052739434FF65F773A4046
:1017300046F010073A4301830284F0BD028B4FF656
:10174000F3731A400283028B0A4302837047F0B599
:101750000C46154600210022068C4FF6FE773E40CF
:101760000684018B028C4FF60C7631407E1C06EA13
:1017700003162E4331434FF6F576324044F001060E
:10178000324301830284F0BD70B505460C462088C3
:1017900050B92389A28861882846FFF7D8FFE188DD
:1017A0002846FFF7CBFF25E0208804280AD12389AB
:1017B000A28861882846FFF794FFE1882846FFF752
:1017C00083FF17E0208808280AD12389A28861882E
:1017D0002846FFF755FFE1882846FFF748FF09E054
:1017E0002389A28861882846FFF719FFE1882846E7
:1017F000FFF708FF70BD0021018041800121818039
:101800000021C180018170472DE9F04105460C4659
:1018100000260127608808B9022600E00026A0887B
:10182000012801D1022700E001272088A0B92389DF
:10183000A28861882846FFF78AFFE1882846FFF7DB
:101840007DFF23893A4631462846FFF74AFFE18863
:101850002846FFF739FF13E02389A28861882846CC
:10186000FFF73FFFE1882846FFF72EFF23893A461E
:1018700031462846FFF76BFFE1882846FFF75EFFF9
:10188000BDE8F0810146486B70470146886B7047A0
:101890000146C86B70470146086C70470A884B8840
:1018A0001A438B881A43CB881A430B891A434B89F6
:1018B0001A438B891A43A0F8442070470021018005
:1018C00041808180C180018141818181704731B136
:1018D000B0F8442042F40042A0F8442005E0B0F8FB
:1018E0004420C2F30E02A0F84420704721B1828840
:1018F00042F00402828004E082884FF6FB731A40B3
:101900008280704721B1828842F00102828004E027
:1019100082884FF6FE731A40828070471AB183891D
:101920000B43838102E083898B43838170478182EB
:10193000704702460020138A0B400BB1012000E0E3
:1019400000207047CA430282704730B5024600202B
:1019500000230024158A05EA0103958905EA01049C
:1019600013B10CB1012000E0002030BDCA43028257
:10197000704741EA0203A0F8483070471AB18389E2
:101980000B43838102E083898B438381704721B1BC
:10199000828842F00802828004E082884FF6F77362
:1019A0001A408280704701894FF6F8721140018118
:1019B00070470A46002101894FF68F731940114381
:1019C0000181704730B504460D4629462046FFF791
:1019D000F0FF208940F00700208130BD2DE9F04163
:1019E00004460D4616461F46602D06D13B46012291
:1019F00031462046FFF775FE05E03B4601223146A1
:101A00002046FFF7A4FE29462046FFF7D2FF208993
:101A100040F007002081BDE8F08130B50C46002180
:101A20000189C9B24FF6FF7505EA03251543254321
:101A30002943018130BD2DE9F04105460E46174688
:101A40009846002443463A4631462846FFF7E5FFCC
:101A50002C894FF6F870044044F007044FF68F705D
:101A6000044044F070042C81BDE8F081F0B50446D8
:101A70000D4616461F463B46324629462046FFF78E
:101A8000CCFF208940F480402081F0BD82884FF651
:101A90008F731A40828082880A438280704702894D
:101AA0004FF6F8731A40028102890A430281704797
:101AB00002894FF67F731A40028102890A4302812C
:101AC0007047F0B50C4615461E4600210022002343
:101AD0000189028B038C4FF6F877394021434FF68A
:101AE000FC473A4040F201173A434FF6DD773B405E
:101AF0004FF6FF7707EA06172F433B430181028326
:101B00000384F0BD21B1828842F08002828004E02B
:101B100082884FF67F731A4082807047A0F8501079
:101B20007047000010B50446FA48844208D10121EC
:101B30001020FFF700F900211020FFF7FCF857E014
:101B4000F548844209D101214804FFF7E3F8002158
:101B50004FF40030FFF7DEF84AE0F048844209D144
:101B600001218804FFF7D6F800214FF48020FFF709
:101B7000D1F83DE0EA48844209D10121C804FFF7C9
:101B8000C9F800214FF40020FFF7C4F830E0E54821
:101B9000844209D101210805FFF7BCF800214FF468
:101BA0008010FFF7B7F823E0DF48844208D1012115
:101BB0002020FFF7C0F800212020FFF7BCF817E035
:101BC000DA48844209D101218807FFF7A3F80021F0
:101BD0004FF08040FFF79EF80AE0D548844207D1D5
:101BE00001214005FFF796F800216005FFF792F804
:101BF00010BD2DE9FF4705460E460024A14600BF53
:101C0000A046B08900B100BF2C8A24F44054F0886B
:101C100004432C82AC8941F20C608443B088318942
:101C20000843718908430443AC81AC8A24F44074AE
:101C3000B0890443AC826846FEF7FDFEB548854294
:101C400002D0B948854202D1DDF80C9001E0DDF800
:101C50000890A88900F4004040B109EBC90000EBEE
:101C6000091031684900B0FBF1F707E009EBC90042
:101C700000EB091031688900B0FBF1F76420B7FB75
:101C8000F0F004012009642101FB1078A88900F418
:101C9000004040B1322000EBC800B0FBF1F000F092
:101CA0000700044308E0322000EB08106421B0FB79
:101CB000F1F000F00F0004432C81BDE8FF874FF4E2
:101CC0001651016000218180C18001810C21418178
:101CD00000218181704710B502460020108A20F44F
:101CE00070600B884C8823438C882343CC88234323
:101CF0001843108210BD0021018041808180C18085
:101D0000704721B1828942F40052828104E08289C5
:101D10004DF6FF731A4082817047028B02F47F42B6
:101D20000283028B0A430283704721B1828942F405
:101D30000042828103E08289C2F30E0282817047F1
:101D400021B1828A42F40062828204E0828A4FF2E8
:101D5000FF731A4082827047C1F308028280704785
:101D600001468888C0F308007047028A4FF6F07376
:101D70001A400282028A0A430282704721B1828994
:101D800042F00202828104E082894FF6FD731A401C
:101D90008281704782894FF2FF731A408281828963
:101DA0000A4382817047028A4FF6DF731A4002822B
:101DB000028A0A430282704721B1028A42F48042B9
:101DC000028204E0028A4BF6FF731A4002827047D7
:101DD000818941F001018181704721B1828A42F0FD
:101DE0000802828204E0828A4FF6F7731A408282E8
:101DF0007047028BD2B20283028B42EA0122028335
:101E0000704721B1828A42F02002828204E0828AF5
:101E10004FF6DF731A408282704721B1828A42F006
:101E20001002828204E0828A4FF6EF731A408282A7
:101E30007047828A4FF6FB731A408282828A0A4375
:101E40008282704721B1828A42F00202828204E0DB
:101E5000828A4FF6FD731A40828270471AB1838AD4
:101E60000B43838202E0838A8B4383827047F0B501
:101E70000346002400260025002040F66A17B942D8
:101E800000D100BF1846C1F3421401F01F0601271C
:101E900007FA06F5012C01D10C3004E0022C01D127
:101EA000103000E014301AB107682F43076002E0D9
:101EB0000768AF430760F0BD02460020B1F5007F20
:101EC00000D100BF13880B400BB1012000E00020BF
:101ED000704701F40072B2F5007F00D100BFCA4321
:101EE0000280704770B502460024002300250020C0
:101EF00040F66A16B14200D100BFC1F3421501F0AD
:101F00001F03012606FA03F3012D13D196893340EE
:101F100017E000000010014000440040004800406D
:101F2000004C004000500040001401400078004088
:101F3000007C0040022D02D1168A334001E0968ACF
:101F400033400C12012606FA04F41688344013B10B
:101F50000CB1012000E0002070BD10B5002200236C
:101F600040F66A14A14200D100BF0A120124944035
:101F7000A3B2DC43048010BD10B504466FF004002A
:101F8000FEF7E8FAE11704EB5171C1F3C701394AD2
:101F900011701046007800EB4001C1EBC0104FF605
:101FA000FF7101EAC0003449088010BD0146314A82
:101FB00012784A434FF0E0235A6100229A611A4690
:101FC000126942F001021A6100BF4FF0E02210696D
:101FD00000F001021AB100F48032002AF5D04FF06F
:101FE000E022126922F001024FF0E0231A61002280
:101FF0009A6170470146204A12884A434FF0E02315
:102000005A6100229A611A46126942F001021A616D
:1020100000BF4FF0E022106900F001021AB100F495
:102020008032002AF5D04FF0E022126922F001023E
:102030004FF0E0231A6100229A61704770B50446A0
:102040004FF4077094FBF0F0C6B24FF4077094FBA6
:10205000F0F100FB114085B205E04FF40770FFF787
:10206000C9FF701EC6B2002EF7D115B12846FFF782
:10207000C1FF70BD2C0000202E0000201CB50121E6
:102080000820FEF7A9FD8020009001208DF80400B3
:1020900000208DF8060003208DF8050002208DF841
:1020A000070069460148FEF7F9FA1CBD000C024022
:1020B00070B52DED028BB0EE408AF0EE608AB0EE86
:1020C000482ADFEDFA1A9FEDFA1ADFEDF90AB2EEAF
:1020D000040A01F0E1FBBDEEC00A10EE104AB0EEBA
:1020E000682ADFEDF21A9FEDF21ADFEDF10AB2EE87
:1020F000040A01F0D1FBBDEEC00A10EE105A6B428B
:102100006A422146204601F0FFFCBDEC028B70BD07
:102110002DE9F0412DED028B04460D4600EE104AEC
:10212000B8EEC02ADFEDE31A9FEDE11ADFEDE00A19
:102130009FEDE10A01F02CFBB0EE408A00EE105A50
:10214000B8EEC02ADFEDDB1A9FEDD91ADFEDD80A11
:102150009FEDD90A01F01CFBF0EE408AB0EE482A50
:10216000DFEDD61A9FEDD21ADFEDD10AB2EE040AE6
:1021700001F092FBBDEEC00A10EE106AB0EE682AC4
:10218000DFEDCE1A9FEDCA1ADFEDC90AB2EE040ADE
:1021900001F082FBBDEEC00A10EE107A3B463A46D3
:1021A0003146304601F0B0FCBDEC028BBDE8F08159
:1021B00010B5C34800680D2877D2DFE810F076002C
:1021C0000D007700E1004B01C5012F0299020303C6
:1021D0006D03DD034704B104BA48B0F90200C0F151
:1021E0000800B9490860B748B0F90A00C0F1080012
:1021F00048600846006858B92621012003F04FF9CD
:102200008F21022003F04BF90A20FFF717FF1EE091
:10221000AD48006800280BDD2921012003F03FF9BB
:102220009221022003F03BF90A20FFF707FF0EE09E
:10223000A548006800280ADA2321012003F02FF9BD
:102240008C21022003F02BF90A20FFF7F7FE9E48AD
:10225000406858B98521032003F021F92F2104207B
:1022600003F01DF90A20FFF7E9FE1EE096484068DA
:1022700000280BDD8821032003F011F9322104200E
:1022800003F00DF90A20FFF7D9FE0EE08E484068F2
:1022900000280ADA8221032003F001F92C2104200E
:1022A00003F0FDF80A20FFF7C9FE20E28548B0F9E7
:1022B0000E00C0F10D00844908608248B0F90C009E
:1022C000C0F10D0048600846006858B93A21022064
:1022D00003F0E5F88621042003F0E1F80A20FFF777
:1022E000ADFE1EE07848006800280BDD3621022094
:1022F00003F0D5F88221042003F0D1F80A20FFF77B
:102300009DFE0EE07048006800280ADA3E21022097
:1023100003F0C5F88A21042003F0C1F80A20FFF772
:102320008DFE6948406858B96221012003F0B7F872
:102330002D21032003F0B3F80A20FFF77FFE1EE0F3
:102340006148406800280BDD5E21012003F0A7F8FA
:102350002921032003F0A3F80A20FFF76FFE0EE007
:102360005948406800280ADA6621012003F097F8EE
:102370003121032003F093F80A20FFF75FFE94E772
:102380005048B0F90800C0F108004F4908604D48B6
:10239000B0F90400C0F1080048600846006858B968
:1023A0008521032003F07BF82F21042003F077F828
:1023B0000A20FFF743FE1EE04348006800280BDDBB
:1023C0008821032003F06BF83221042003F067F822
:1023D0000A20FFF733FE0EE03B48006800280ADAC7
:1023E0008221032003F05BF82C21042003F057F82E
:1023F0000A20FFF723FE3448406858B926210120FF
:1024000003F04DF88F21022003F049F80A20FFF76E
:1024100015FE1EE02C48406800280BDD2921012014
:1024200003F03DF89221022003F039F80A20FFF76B
:1024300005FE0EE02448406800280ADA2321012026
:1024400003F02DF88C21022003F029F80A20FFF771
:10245000F5FDCEE31B48B0F90C00C0F10D001A49A0
:1024600008601848B0F90E00C0F10D004860084639
:10247000006858B96221012003F011F82D210320D2
:1024800003F00DF80A20FFF7D9FD2EE00E48006892
:1024900000281BDD6621012003F001F83121032013
:1024A00002F0FDFF0A20FFF7C9FD1EE00000E84230
:1024B0000000000000A405460000C8420078344631
:1024C00000000020BC01002038000020FE48006809
:1024D00000280ADA5E21012002F0E1FF2921032011
:1024E00002F0DDFF0A20FFF7A9FDF748406858B960
:1024F0003A21022002F0D3FF8621042002F0CFFF10
:102500000A20FFF79BFD1EE0EF48406800280BDD26
:102510003E21022002F0C3FF8A21042002F0BFFF07
:102520000A20FFF78BFD0EE0E748406800280ADA32
:102530003621022002F0B3FF8221042002F0AFFF17
:102540000A20FFF77BFD54E3E048B0F90A00C0F130
:102550000800DD490860DD48B0F90200C0F108005C
:1025600048600846006858B98521032002F097FFAB
:102570002F21042002F093FF0A20FFF75FFD1EE0E9
:10258000D148006800280BDD8221032002F087FF7C
:102590002C21282002F083FF0A20FFF74FFD0EE0D8
:1025A000C948006800280ADA8821032002F077FF72
:1025B0003221042002F073FF0A20FFF73FFDC248DA
:1025C000406858B92621012002F069FF8F210220BE
:1025D00002F065FF0A20FFF731FD1EE0BA484068AF
:1025E00000280BDD2321012002F059FF8C2102205D
:1025F00002F055FF0A20FFF721FD0EE0B2484068C7
:1026000000280ADA2921012002F049FF9221022044
:1026100002F045FF0A20FFF711FDEAE2AB48B0F9EE
:102620000E00C0F10D00A8490860A848B0F90C00E0
:10263000C0F10D0048600846006858B93A210220F0
:1026400002F02DFF8621042002F029FF0A20FFF767
:10265000F5FC1EE09C48006800280BDD36210220B6
:1026600002F01DFF8221042002F019FF0A20FFF76B
:10267000E5FC0EE09448006800280ADA3E210220BA
:1026800002F00DFF8A21042002F009FF0A20FFF763
:10269000D5FC8D48406858B96221012002F0FFFE48
:1026A0002D21032002F0FBFE0A20FFF7C7FC1EE0ED
:1026B0008548406800280BDD5E21012002F0EFFE16
:1026C0002921032002F0EBFE0A20FFF7B7FC0EE001
:1026D0007D48406800280ADA6621012002F0DFFE0A
:1026E0003121032002F0DBFE0A20FFF7A7FC80E285
:1026F0007648B0F90800C0F10800734908607348D3
:10270000B0F90400C0F1080048600846006858B9F4
:102710008521032002F0C3FE2F21042002F0BFFE1A
:102720000A20FFF78BFC1EE06748006800280BDDDD
:102730008821032002F0B3FE3221042002F0AFFE14
:102740000A20FFF77BFC0EE05F48006800280ADAE9
:102750008221032002F0A3FE2C21042002F09FFE20
:102760000A20FFF76BFC5848406858B92621012021
:1027700002F095FE8F21022002F091FE0A20FFF761
:102780005DFC1EE05048406800280BDD2921012037
:1027900002F085FE9221022002F081FE0A20FFF75E
:1027A0004DFC0EE04848406800280ADA2321012049
:1027B00002F075FE8C21022002F071FE0A20FFF764
:1027C0003DFC16E24148B0F90C00C0F10D003E4955
:1027D00008603E48B0F90E00C0F10D0048600846A0
:1027E000006858B96221012002F059FE2D21032012
:1027F00002F055FE0A20FFF721FC1EE03248006877
:1028000000280BDD6621012002F049FE3121032062
:1028100002F045FE0A20FFF711FC0EE02A4800688E
:1028200000280ADA5E21012002F039FE2921032066
:1028300002F035FE0A20FFF701FC2348406858B932
:102840003A21022002F02BFE8621042002F027FE0E
:102850000A20FFF7F3FB1EE01B48406800280BDD51
:102860003E21022002F01BFE8A21042002F017FE06
:102870000A20FFF7E3FB0EE01348406800280ADA5D
:102880003621022002F00BFE8221042002F007FE16
:102890000A20FFF7D3FBACE10C48B0F90A00C0F105
:1028A0000800094908600948B0F90200C0F10800B1
:1028B00048600846006888B98521032002F0EFFDD2
:1028C0002821042004E0000038000020BC01002082
:1028D00002F0E5FD0A20FFF7B1FB1EE0F9480068B1
:1028E00000280BDD8221032002F0D9FD25212820BC
:1028F00002F0D5FD0A20FFF7A1FB0EE0F1480068C9
:1029000000280ADA8821032002F0C9FD2B210420C7
:1029100002F0C5FD0A20FFF791FBEA48406858B96C
:102920002321012002F0BBFD8621022002F0B7FD29
:102930000A20FFF783FB1EE0E248406800280BDD19
:102940002021012002F0ABFD8321022002F0A7FD2F
:102950000A20FFF773FB0EE0DA48406800280ADA25
:102960002621012002F09BFD8921022002F097FD23
:102970000A20FFF763FB3CE1D348B0F90E00C0F139
:102980000D00D0490860D048B0F90C00C0F10D002E
:1029900048600846006858B93A21022002F07FFDDD
:1029A0008621042002F07BFD0A20FFF747FB1EE092
:1029B000C448006800280BDD3621022002F06FFDBC
:1029C0008221042002F06BFD0A20FFF737FB0EE0A6
:1029D000BC48006800280ADA3E21022002F05FFDB0
:1029E0008A21042002F05BFD0A20FFF727FBB5488F
:1029F000406858B96221012002F051FD2D210320C9
:102A000002F04DFD0A20FFF719FB1EE0AD484068BB
:102A100000280BDD5E21012002F041FD2921032069
:102A200002F03DFD0A20FFF709FB0EE0A5484068D3
:102A300000280ADA6621012002F031FD312103204D
:102A400002F02DFD0A20FFF7F9FAD2E09E48B0F916
:102A50000C00C0F10D009B4908609B48B0F90E00C6
:102A6000C0F10D0048600846006858B96221012095
:102A700002F015FD2D21032002F011FD0A20FFF7C1
:102A8000DDFA1EE08F48006800280BDD662101207A
:102A900002F005FD3121032002F001FD0A20FFF7BD
:102AA000CDFA0EE08748006800280ADA5E2101208E
:102AB00002F0F5FC2921032002F0F1FC0A20FFF7C7
:102AC000BDFA8048406858B93A21022002F0E7FC7C
:102AD0008621042002F0E3FC0A20FFF7AFFA1EE093
:102AE0007848406800280BDD3E21022002F0D7FC28
:102AF0008A21042002F0D3FC0A20FFF79FFA0EE09F
:102B00007048406800280ADA3621022002F0C7FC2B
:102B10008221042002F0C3FC0A20FFF78FFA68E04C
:102B20006948B0F90A00C0F10800664908606648C3
:102B3000B0F90200C0F1080048600846006858B9C2
:102B40008521032002F0ABFC2821042002F0A7FC21
:102B50000A20FFF773FA1EE05A48006800280BDDD0
:102B60008221032002F09BFC2521282002F097FC03
:102B70000A20FFF763FA0EE05248006800280ADADC
:102B80008821032002F08BFC2B21042002F087FC1B
:102B90000A20FFF753FA4B48406858B92321012017
:102BA00002F07DFC8621022002F079FC0A20FFF76A
:102BB00045FA1EE04348406800280BDD2021012033
:102BC00002F06DFC8321022002F069FC0A20FFF76D
:102BD00035FA0EE03B48406800280ADA2621012039
:102BE00002F05DFC8921022002F059FC0A20FFF767
:102BF00025FA00BF10BD10B501203449086000203F
:102C0000334908603349086012E0334B5A42194691
:102C1000184600F079FF2F2385228F21262002F00D
:102C200012FC2E48006841F27071884200DB00E01F
:102C3000EBE700BF0DE0FFF7BBFA274B5A421946FE
:102C4000184600F061FF2048B0F900002D2800DA96
:102C500000E0F0E700BF0DE0FFF7AAFA204B5A4270
:102C60001946184600F050FF1748B0F90000162822
:102C700000DA00E0F0E700BF10BD70B50220134994
:102C80000860002012490860124908601549086070
:102C90001549086000211548FEF728FA00231A4656
:102CA0001946184600F030FF86232D223A21622073
:102CB00002F0C9FBC820FFF7C1F901210B48FEF75C
:102CC00015FA38E038000020BC0100200000002088
:102CD000240400400801002019FCFFFF2C01002003
:102CE000A8FDFFFF240800400C010020001C00404C
:102CF000FD4C246804F51673FB4C2468C4F5167269
:102D0000F94C2468C4F51671F74C2468F74D281B5C
:102D100000F0FAFE86232D223A21622002F093FB76
:102D2000F348B0F90C00142804DDF148B0F90E00A6
:102D3000142800DC00E0DBE700BF35E0EA4C246843
:102D400004F25233E84C246840F252352A1BE64C18
:102D50002468291BE44C24686D42281B00F0D4FE33
:102D6000FFF726FAE3480068012808D10121E2486C
:102D7000FEF7F2FF0020DF490860E0490860DC4808
:102D8000B0F908000F2804DDD948B0F90800282858
:102D900009DBD748B0F904000F2805DDD448B0F9A5
:102DA0000400282800DA00E0C8E700BF27E08623F7
:102DB0002D223A21622002F046FBCB4C246804F518
:102DC0001673C94C2468C4F51672C74C2468C4F540
:102DD0001671C54C2468C54D281B00F095FEC448EB
:102DE000B0F908000F2804DBC148B0F904000F282F
:102DF00005DA0020C2490860C249086000E0D6E751
:102E000000BF70BD10B50320BF4908600020BC4959
:102E10000860BC490860BD490860BD490860BD49FB
:102E200008600021BC48FEF761F900231A461946E4
:102E3000184600F069FE2F2385228F21262002F0FC
:102E400002FBC820FFF7FAF80121B348FEF74EF95C
:102E50001AE0A54C2468C4F55273A34C2468A4F569
:102E60005272A14C246804F552719F4C246804F5F9
:102E7000527000F049FEFFF79BF9A448006841F248
:102E80007C51884200DD00E0E3E700BF10BD70B573
:102E900004209D490860002099490860994908600C
:102EA00000219D48FEF722F900231A4619461846CC
:102EB00000F02AFE86232D223A21622002F0C3FA76
:102EC000C820FFF7BBF801219348FEF70FF921E076
:102ED000854C2468A4F51673834C2468834D2A1B03
:102EE000814C2468291B804C2468C4F5167000F0BE
:102EF0000BFE86232D223A21622002F0A4FA7C48A0
:102F0000B0F90C00142804DD7948B0F90E0014283B
:102F100000DC00E0DCE700BF2BE076480068012819
:102F200008D101217448FEF717FF0020714908609D
:102F300072490860FFF73CF96B4C2468A4F53973BB
:102F4000694C2468694D8C3D2A1B674C2468291BF9
:102F5000654C2468C4F5397000F0D6FD6448B0F9BA
:102F60000200282804DD6248B0F90A00282800DCA5
:102F700000E0D2E700BF26E086232D223A2162201E
:102F800002F061FA584C2468A4F51673564C246874
:102F9000564D2A1B544C2468291B534C2468C4F5F5
:102FA000167000F0B1FD5248B0F90200112804DBA0
:102FB0004F48B0F90A00112805DA0020504908608E
:102FC0005049086000E0D7E700BF70BD10B505208C
:102FD0004D49086000204A4908604A4908604B4949
:102FE00008604B4908604B49086000214A48FEF7D9
:102FF0007DF800231A461946184600F085FD2F2358
:1030000085228F21262002F01EFAC820FFF716F82D
:1030100001214148FEF76AF81AE0334C2468C4F5F0
:103020005273314C2468A4F552722F4C246804F575
:1030300052712D4C246804F5527000F065FDFFF7C5
:10304000B7F83248006841F2B441884200DD00E040
:10305000E3E700BF10BD70B506202B4908600020D3
:1030600027490860274908602949086029490860FC
:1030700000212948FEF73AF800231A461946184657
:1030800000F042FD86232D223A21622002F0DBF976
:10309000C820FEF7D3FF01211F48FEF727F83DE0C7
:1030A00086232D223A21622002F0CDF90E4C2468AD
:1030B00004F516730C4C2468C4F516720A4C246887
:1030C000C4F51671084C2468084D281B00F01CFD3F
:1030D0000748B0F90C00142804DD0548B0F90E00CB
:1030E00014281BDC1BE0000034010020A8FDFFFFBA
:1030F000BC010020380100200010014058010020D0
:103100002404004008010020000000202C010020C1
:10311000240800400C010020001C0040C0E700BF54
:103120002BE0FE480068012808D10121FC48FEF789
:1031300013FE0020F9490860FA490860FFF738F8E3
:10314000F94C246804F25233F74C246840F25235AB
:103150002A1BF54C2468291BF34C24686D42281B5C
:1031600000F0D2FCF148B0F90800282804DBEF4851
:10317000B0F90400282800DA00E0D2E700BF27E019
:1031800086232D223A21622002F05DF9E64C246864
:1031900004F51673E44C2468C4F51672E24C2468F6
:1031A000C4F51671E04C2468E14D281B00F0ACFC1E
:1031B000DE48B0F908000F2804DBDC48B0F9040051
:1031C0000F2805DA0020DB490860DB49086000E0D1
:1031D000D6E700BF70BD10B50720D84908600020B1
:1031E000D4490860D4490860D5490860D5490860C9
:1031F000D54908600021D548FDF778FF00231A461D
:103200001946184600F080FC2F2385228F212620A6
:1032100002F019F9C820FEF711FF0121CB48FDF794
:1032200065FF1AE0C04C2468C4F55273BE4C246894
:10323000A4F55272BC4C246804F55271BA4C24684F
:1032400004F5527000F060FCFEF7B2FFBC48006865
:1032500041F27C51884200DD00E0E3E700BF10BD91
:1032600070B50820B54908600020B2490860B2492D
:1032700008600021B548FDF739FF00231A461946BA
:10328000184600F041FC86232D223A21622002F0EC
:10329000DAF8C820FEF7D2FE0121AC48FDF726FF80
:1032A00021E0A14C2468A4F516739F4C2468A04D1E
:1032B0002A1B9D4C2468291B9B4C2468C4F516705E
:1032C00000F022FC86232D223A21622002F0BBF876
:1032D0009648B0F90C00142804DD9448B0F90E00AB
:1032E000142800DC00E0DCE700BF2BE0FEF760FF05
:1032F0008A480068012808D101218948FEF72CFD81
:1033000000208649086087490860874C2468A4F536
:103310003973854C2468864D8C3D2A1B824C246869
:10332000291B814C2468C4F5397000F0EDFB7F48FF
:10333000B0F90200282804DD7C48B0F90A002828EA
:1033400000DC00E0D2E700BF26E086232D223A21F0
:10335000622002F078F8744C2468A4F51673724C5D
:103360002468734D2A1B704C2468291B6E4C2468FA
:10337000C4F5167000F0C8FB6C48B0F902001128C3
:1033800004DB6A48B0F90A00112805DA002069490F
:1033900008606949086000E0D7E700BF70BD10B55C
:1033A0000920664908600020624908606249086097
:1033B0006349086063490860634908600021634805
:1033C000FDF794FE00231A461946184600F09CFBB0
:1033D0002F2385228F21262002F035F8C820FEF702
:1033E0002DFE01215948FDF781FE1AE04E4C24685C
:1033F000C4F552734C4C2468A4F552724A4C2468AC
:1034000004F55271484C246804F5527000F07CFBBE
:10341000FEF7CEFE4A48006841F2B441884200DD22
:1034200000E0E3E700BF10BD70B50A204349086023
:103430000020404908604049086000214348FDF7EA
:1034400055FE00231A461946184600F05DFB8623F8
:103450002D223A21622001F0F6FFC820FEF7EEFD92
:1034600001213A48FDF742FE22E02F4C246804F582
:1034700016732D4C2468C4F516722B4C2468C4F5C1
:103480001671294C24682A4D281B00F03DFB862329
:103490002D223A21622001F0D6FF2448B0F90C0019
:1034A000142804DD2148B0F90E00142800DC00E0E7
:1034B000DBE700BF1EE0FEF77BFE1B4C246804F236
:1034C0005233194C246840F252352A1B164C24689A
:1034D000291B154C24686D42281B00F015FB13486E
:1034E000B0F90800282804DB1048B0F904002828A7
:1034F00000DA00E0DFE700BF42E086232D223A2118
:10350000622001F0A0FF084C246804F51673064CF5
:103510002468C4F51672044C246819E038010020B0
:10352000001001405801002034010020BC0100209F
:10353000A8FDFFFF24040040080100200000002037
:103540002C010020240800400C010020001C004039
:10355000C4F51671814C2468814D281B00F0D4FA03
:103560008048B0F908000F2804DB7E48B0F9040059
:103570000F2805DA00207C4908607C49086000E0DB
:10358000BBE700BF70BD70B50B2079490860002013
:103590007849086078490860734908607349086091
:1035A00000217648FDF7A2FD00231A461946184669
:1035B00000F0AAFA86232D223A21622001F043FF6F
:1035C000C820FEF73BFD01216C48FDF78FFD22E08E
:1035D000624C2468A4F53973604C2468604D8C3DBE
:1035E0002A1B5E4C2468291B5C4C2468C4F5397086
:1035F00000F08AFA86232D223A21622001F023FF6F
:103600005848B0F90C00142804DD5648B0F90E00F3
:10361000142800DC00E0DBE700BF26E0FEF7C8FD71
:1036200054480068012808D101215548FEF794FB51
:1036300000205049086050490860484C2468A4F5AF
:103640003973464C2468464D8C3D2A1B434C2468F4
:10365000291B424C2468C4F5397000F055FA4148E2
:10366000B0F90200282800DC00E0D7E700BF21E025
:1036700086232D223A21622001F0E5FE374C246892
:10368000A4F51673354C2468354D2A1B334C246839
:10369000291B324C2468C4F5167000F035FA314805
:1036A000B0F902000C2805DA00202F4908602F49E4
:1036B000086000E0DCE700BF70BD10B50C202C49AD
:1036C0000860002028490860284908602D490860E2
:1036D0002D4908602D49086000212848FDF706FDA6
:1036E00000231A461946184600F00EFA2F238522A9
:1036F0008F21262001F0A7FEC820FEF79FFC0121A4
:103700001E48FDF7F3FC0EE040F2E7335A4219463B
:10371000184600F0F9F9FEF74BFD1248B0F90A001F
:10372000172800DD00E0EFE700BF13E02A23802226
:103730008F21262001F087FE40F2E7335A421946D6
:10374000184600F0E1F90F48006842F26C01884227
:1037500000DD00E0EAE700BF10BD000034010020FA
:10376000A8FDFFFFBC010020240400400801002048
:10377000000000203801002058010020001C0040FB
:10378000001001402C010020240800400C01002002
:1037900087B0F0EE402ACDED022ACDED030A8DED83
:1037A000041A31EEC20A8DED000A9DED000A9FED6C
:1037B000AF3AB4EEC30AF1EE10FA14DB9DED000A45
:1037C0009FEDAB3AB4EEC30AF1EE10FA0BD89FEDC1
:1037D000A90A8DED000A9FEDA70A8DED050A9FED60
:1037E000A50A8DED010A9DED000A9FEDA33AB4EE06
:1037F000C30AF1EE10FA2BDD9DED000A9FED9F3A12
:10380000B4EEC30AF1EE10FA22D29DED050A9DED49
:10381000003A30EE030A8DED050A9DED050A9FED95
:10382000983AB4EEC30AF1EE10FA04DD9FED940A63
:103830008DED050A0CE09DED050A9FED923AB4EE80
:10384000C30AF1EE10FA03D29FED8E0A8DED050A40
:103850009DED020A9DED003A20EE030A9DED033A2C
:10386000DDED053A03EE230A9DED003ADDED013A68
:1038700033EE633ADDED043A03EE830ABDEEC00A8F
:103880008DED060A9DED000A8DED010A9DED060AFB
:10389000B8EEC00A07B0704787B0F0EE402ACDED11
:1038A000022ACDED030A8DED041A31EEC20A8DED28
:1038B000000A9DED000AB9EE043AB4EEC30AF1EE37
:1038C00010FA14DD9DED000AB1EE043AB4EEC30A1D
:1038D000F1EE10FA0BD29FED670A8DED000A9FED15
:1038E000650A8DED050A9FED630A8DED010A9DEDD8
:1038F000000A9FED653AB4EEC30AF1EE10FA2BDD33
:103900009DED000A9FED613AB4EEC30AF1EE10FAA4
:1039100022D29DED050A9DED003A30EE030A8DEDB1
:10392000050A9DED050A9FED5A3AB4EEC30AF1EE81
:1039300010FA04DD9FED560A8DED050A0CE09DEDB1
:10394000050A9FED543AB4EEC30AF1EE10FA03D221
:103950009FED500A8DED050A9DED020A9DED003A9E
:1039600020EE030A9DED033ADDED053A03EE230A4E
:103970009DED003ADDED013A33EE633ADDED043AB8
:1039800003EE830ABDEEC00A8DED060A9DED000A26
:103990008DED010A9DED060AB8EEC00A07B070472A
:1039A00087B08DED020ACDED030A8DED041ACDED41
:1039B000001A9DED022ADDED002A22EE222ADDED1D
:1039C000032A9DED053A02EE832ADDED002A9DEDE6
:1039D000013A72EEC32A9DED043A03EE222ABDEEAF
:1039E000C22A8DED062A9DED002A8DED012A06984A
:1039F00007B0704787B0B0EE402A8DED022ACDEDBA
:103A0000030A8DED041ACDED001A9DED020ADDEDDD
:103A1000002A20EE220ADDED032A9DED053A02EE92
:103A2000830ADDED002A9DED013A72EEC32A9DED79
:103A3000043A03EE220ABDEEC00A8DED060A9DEDA2
:103A4000000A8DED010A0698962803DB9FED120A05
:103A500007B07047069810F1960F02DC9FED0F0A31
:103A6000F6E79DED060AB8EEC00AF1E7000070C265
:103A70000000704200000000000048C300004843FE
:103A800000004844000048C40000C8C20000C8420A
:103A900000008243000082C300001643000016C3EA
:103AA0001CB501211820FDF797F844F61540009049
:103AB00001208DF8040000208DF8060003208DF809
:103AC000050001208DF8070069465548FCF7E6FD22
:103AD0009020009069465348FCF7E0FD1CBD01466C
:103AE000B1F57A7F02DD4FF47A70704711F57A7F75
:103AF00001DA4D48F9E70846F7E70146002901DDFC
:103B0000084670474842FCE72DE9F04106460F465B
:103B100014461D463046FFF7E2FF00280BDB01206C
:103B20004249086000204249C1F8900231464148AC
:103B3000FDF741FC0EE000203C49086001203C49B3
:103B4000C1F890023046FFF7D8FF80464146394819
:103B5000FDF731FC3846FFF7C2FF00280CDB0120DF
:103B600032493039086000203149C1F880023946B5
:103B70003048FDF722FC0FE000202C493039086066
:103B800001202B49C1F880023846FFF7B6FF804676
:103B900041462848FDF711FC2046FFF7A0FF00280A
:103BA0000BDB01202449086000202449C1F89C0255
:103BB00021462348FDF7FFFB0EE000201E49086068
:103BC00001201E49C1F89C022046FFF796FF80465F
:103BD00041461B48FDF7EFFB2846FFF780FF002812
:103BE0000CDB012011491039086000201049C1F890
:103BF000AC0229461348FDF7DEFB0FE000200B491D
:103C00001039086001200A49C1F8AC022846FFF7C4
:103C100074FF804641460B48FDF7CDFBBDE8F081BF
:103C2000000C02400010024018FCFFFFB882414225
:103C30000080414200400140900242420000424266
:103C4000004401400048014000B58BB00121080448
:103C5000FDF71CF801211020FCF7BEFF6020099041
:103C600002208DF8280003208DF8290000208DF80F
:103C70002A0001208DF82B0009A96D48FCF70EFDE4
:103C8000032205216A48FCF794FD032206216848B7
:103C9000FCF78FFD5320ADF818000020ADF81A0096
:103CA0004FF47A7007900020ADF8200006A9614813
:103CB000FDF793F97020ADF804000120ADF806007F
:103CC0000220ADF8100001A95A48FDF71BFA01A91E
:103CD0005848FDF750FA08215648FDF7A0FB082187
:103CE0005448FDF7A5FB01215248FDF7E1F90121F8
:103CF0005048FDF7FBF90BB000BD00B58BB00121BA
:103D00004804FCF7C3FF01210220FCF765FF4FF4D4
:103D10008070099002208DF8280003208DF829007A
:103D200000208DF82A0001208DF82B0009A94248B7
:103D3000FCF7B4FC032208213F48FCF73AFD53206E
:103D4000ADF818000020ADF81A004FF47A70079013
:103D50000020ADF8200006A93848FDF73EF9702094
:103D6000ADF804000120ADF806000220ADF8100007
:103D700001A93248FDF7C6F908213048FDF74FFB8D
:103D800001212E48FDF794F901212C48FDF7AEF9E9
:103D90000BB000BD00B58BB001218804FCF776FFA5
:103DA00001210220FCF718FF4FF400700990022057
:103DB0008DF8280003208DF8290000208DF82A00B6
:103DC00001208DF82B0009A91B48FCF767FC032292
:103DD00009211948FCF7EDFC5320ADF8180000202C
:103DE000ADF81A004FF47A7007900020ADF820006B
:103DF00006A91348FDF7F1F87020ADF80400012082
:103E0000ADF806000220ADF8100001A90C48FDF73E
:103E100079F908210A48FDF702FB01210848FDF75E
:103E200047F901210648FDF761F90BB000BD00001C
:103E300000100240004001400004024000440140E4
:103E4000004801401CB501211020FCF7C5FE0121EE
:103E50000820FCF7C1FE01210420FCF7BDFE4FF451
:103E60001540009001208DF8040000208DF8060018
:103E700003208DF8050002208DF807006946FE48F2
:103E8000FCF70CFC4FF41541FB48FCF785FC0A20BD
:103E9000009001208DF8040000208DF8060003201A
:103EA0008DF8050002208DF807006946F348FCF7FD
:103EB000F5FB0A21F148FCF76FFC41F20800009085
:103EC00001208DF8040000208DF8060003208DF8F5
:103ED000050002208DF807006946E948FCF7DEFB83
:103EE00041F20801E648FCF757FC1CBD2DE9F04102
:103EF000E448007800F0800098B1E248007800F0D3
:103F00003F00C117E04A03C2DF48D0E90031DF4873
:103F10000068181841F10001083A03C20020D9498D
:103F20000870D9484FF4AA72D0E900310020A3FBF1
:103F3000026801FB028103FB0011022203463046A6
:103F400003F047FC044642F21072002303F041FCE8
:103F5000CF4A03C2CF4B0522CD48008801B2CE48DC
:103F600001F0D7F8CD48007800F08000A0B1CB4830
:103F7000007800F03F00C117C94A03C2C848D0E921
:103F80000030C8490968591840F10000083AC2E9F0
:103F900000100020C1490870C148D0E900104FF45A
:103FA000AA730022A1FB036800FB038001FB02014E
:103FB00002220023304603F00CFC044642F2107249
:103FC000002303F006FCB84A03C2B24B9B1C052237
:103FD000B548008801B2B54801F09BF8B4480078B4
:103FE00000F0800070B1B248007800F03F00C117C7
:103FF000B04A03C2B04800680021083A03C200205A
:10400000AB490870AB494FF4AA7305C90021A0FB66
:10401000036802FB038200FB012702220B463046A5
:10402000394603F0D6FB044642F21072002303F037
:10403000D0FBA24A03C2974B1B1D05229F48008854
:1040400001B29F4801F065F89E48007800F08000BA
:10405000A0B19C48007800F03F00C1179A4A03C203
:104060009948D0E9003099490968591840F1000091
:10407000083AC2E900100020924908709248D0E93D
:1040800000104FF4AA730022A1FB036800FB038019
:1040900001FB020102220023304603F09AFB044692
:1040A00042F21072002303F094FB894A03C2794B59
:1040B0009B1D05228648008801B2864801F029F838
:1040C0008548007800F08000A0B18348007800F0B7
:1040D0003F00C117814A03C28048D0E900308049BF
:1040E0000968591840F10000083AC2E900100020A0
:1040F00079490870794903C94FF4AA7C0022A0FBD2
:104100000C6801FB0C8100FB0211022200233046E7
:1041100003F05FFB044642F21072002303F059FBE8
:10412000704A03C25B4B083305226E48008801B217
:104130006D4800F0EEFF6D48007800F08000A0B1FF
:104140006A48007800F03F00C117694A03C2684816
:10415000D0E9003067490968591840F10000083A71
:10416000C2E9001000206149087061484FF4AA714B
:104170004FF0000C0CC8A2FB016803FB018102FB9D
:104180000C1102226346304603F023FB044642F240
:104190001072002303F01DFB574A03C23D4B0A3344
:1041A00005225548008801B2544800F0B2FF544837
:1041B000007800F0800070B15148007800F03F00B6
:1041C000C117504A03C2504800680021083A03C290
:1041D00000204B4908704B494FF4AA734FF0000C74
:1041E00005C9A0FB036802FB038200FB0C2102222D
:1041F0006346304603F0EDFA044642F210720023A3
:1042000003F0E7FA414A03C2224B0C3305223F4830
:10421000008801B23E4800F07CFF3E48007800F084
:104220008000A0B13B48007800F03F00C1173A4A37
:1042300003C23948D0E9003038490968591840F1BB
:104240000000083AC2E900100020324908703248E4
:10425000D0E900214FF4AA700023A2FB006801FB03
:10426000008002FB03010222304603F0B2FA04464A
:1042700042F21072002353E000100240000C024092
:104280000008024040000020800000204400002080
:10429000C0000020BC010020CC010020480000200C
:1042A000880000204C000020C8000020F001002001
:1042B000500000209000002054000020D00000207A
:1042C0001402002058000020980000205C0000200C
:1042D000D80000203802002060000020A00000204C
:1042E00064000020E00000205C0200206800002044
:1042F000A80000206C000020E800002080020020C0
:1043000070000020B000002074000020F0000020A9
:10431000A402002078000020B80000207C000020CB
:1043200003F057FAFC4A03C2FC4B0522FA48008806
:1043300001B2FB4800F0EDFEF8480E38B0F900007D
:10434000FF2804DDFF20F5490E39088005E0F34819
:104350000E380088F1490E390880F0480E38B0F95F
:104360000200FF2804DDFF20EC490E39488005E0FB
:10437000EA480E384088E9490E394880E7480E3847
:10438000B0F90400FF2804DDFF20E4490E398880DD
:1043900005E0E2480E388088E0490E398880DF4821
:1043A0000E38B0F90600FF2804DDFF20DB490E3986
:1043B000C88005E0D9480E38C088D8490E39C88071
:1043C000D6480E38B0F90800FF2804DDFF20D34995
:1043D0000E39088105E0D1480E380089CF490E39E1
:1043E0000881CE480E38B0F90A00FF2804DDFF200E
:1043F000CA490E39488105E0C8480E384089C74986
:104400000E394881C5480E38B0F90C00FF2804DD8C
:10441000FF20C2490E39888105E0C0480E388089E6
:10442000BE490E398881BD480E38B0F90E00FF280C
:1044300004DDFF20B9490E39C88105E0B7480E38C0
:10444000C089B6490E39C881BDE8F08130B589B060
:1044500004460D4601210820FCF707FC012108460F
:10446000FCF7BAFB0F20079002208DF820008DF892
:10447000230003208DF8210007A9AA48FCF70EF9B4
:104480000F21A848FCF788F902220021A548FCF773
:1044900090F902220121A348FCF78BF90222114670
:1044A000A048FCF786F9022203219E48FCF781F917
:1044B000ADF810500020ADF812000594ADF81800CA
:1044C00004A99948FCF789FD0020ADF80000ADF87B
:1044D00002000120ADF804000020ADF80600ADF8A0
:1044E000080069469048FDF74FF90420ADF8000038
:1044F00069468D48FDF748F90820ADF80000694687
:104500008948FDF741F90C20ADF80000694686485E
:10451000FDF73AF9012211468348FDF7FFF9012220
:1045200002218148FDF7FAF9012204217E48FDF7B6
:10453000F5F9012208217C48FDF7F0F9012210214C
:104540007948FDF7EBF901217748FCF7CFFD3220E0
:104550008DF80C0001208DF80D008DF80E008DF8FF
:104560000F0003A8FBF7A9FF09B030BD30B589B033
:1045700004460D4601210846FCF788FB0121102066
:10458000FCF72AFB4FF4D440079002208DF820005E
:104590008DF8230003208DF8210007A96348FCF75C
:1045A0007DF84FF4D4416148FCF7F6F80122092167
:1045B0005E48FCF7FEF801220B215C48FCF7F9F895
:1045C00001220D215948FCF7F4F801220E21574829
:1045D000FCF7EFF8ADF810500020ADF8120005948C
:1045E000ADF8180004A95248FCF7F7FC0020ADF81C
:1045F0000000ADF802000120ADF804000020ADF885
:104600000600ADF8080069464948FDF7BDF80420EA
:10461000ADF800000020ADF802000120ADF8040064
:104620000020ADF80600ADF8080069464048FDF7E7
:10463000ABF80820ADF800000020ADF80200012022
:10464000ADF804000020ADF80600ADF8080069469A
:104650003748FDF799F80C20ADF800000020ADF8C0
:1046600002000120ADF804000020ADF80600ADF80E
:10467000080069462E48FDF787F8012211462C48AC
:10468000FDF74CF9012202212948FDF747F90122E3
:1046900004212748FDF742F9012208212448FDF7AB
:1046A0003DF9012210212248FDF738F90121204867
:1046B000FCF71CFD1B208DF80C0001208DF80D006F
:1046C0008DF80E008DF80F0003A8FBF7F6FE09B079
:1046D00030BD10B51748007800F08000002867D181
:1046E00001211148FDF731F9A8B11248007800F016
:1046F000400080B10F48007800F03F003F281DD1F6
:104700000C48007840F080000A4908704FF0FF30F4
:104710000949086017E016E0F8000020CA010020EF
:10472000C802002000000240000C004000100240BF
:10473000000001404000002044000020FE480078B6
:10474000401CFD4908700221FC48FDF7FEF878B3D3
:10475000F948007800F0400078B1F748007840F060
:104760008000F5490870F548FDF78CF8F4490860B9
:104770000021F248FCF7D5FE1AE00020EE4908704F
:10478000EF490860EC48007840F04000EA490870C2
:104790000021EA48FCF7AAFC0021E848FCF766FC87
:1047A0000221E648FCF7BDFE0121E448FCF79EFC2F
:1047B000E448007800F08000002854D10121DF484F
:1047C000FDF7C3F8D0B1DF48007800F04000A8B191
:1047D000DC48007800F03F003F280AD1D948007833
:1047E00040F08000D74908704FF0FF30D64908608C
:1047F00004E0D4480078401CD24908700421CF4816
:10480000FDF7A3F878B3CF48007800F0400078B106
:10481000CC48007840F08000CA490870C748FDF7CE
:1048200034F8C94908600021C448FCF78CFE1AE03E
:104830000020C4490870C4490860C248007840F0AC
:104840004000C04908700021BC48FCF74FFC002123
:10485000BA48FCF70BFC0221B848FCF774FE0121B2
:10486000B648FCF743FCB948007800F08000002807
:1048700054D10121B148FDF768F8D0B1B3480078B0
:1048800000F04000A8B1B148007800F03F003F2898
:104890000AD1AE48007840F08000AC4908704FF073
:1048A000FF30AB49086004E0A8480078401CA749E5
:1048B00008700821A148FDF748F878B3A3480078AC
:1048C00000F0400078B1A148007840F080009F4996
:1048D00008709A48FCF7DCFF9D4908600021974862
:1048E000FCF74BFE1AE000209849087098490860D0
:1048F0009648007840F040009449087000218F48A5
:10490000FCF7F4FB00218D48FCF7B0FB02218B483B
:10491000FCF733FE01218948FCF7E8FB8D4800785D
:1049200000F08000002854D101218448FDF70DF8E3
:10493000D0B18848007800F04000A8B185480078E0
:1049400000F03F003F280AD18248007840F0800004
:10495000804908704FF0FF307F49086004E07D48CF
:104960000078401C7B49087010217448FCF7EDFF6B
:1049700078B37848007800F0400078B17548007846
:1049800040F08000734908706C48FCF784FF72495E
:10499000086000216948FCF70AFE1AE000206D4912
:1049A00008706D4908606B48007840F04000694924
:1049B000087000216148FCF799FB00215F48FCF773
:1049C00055FB02215D48FCF7F2FD01215B48FCF735
:1049D0008DFB1F215948FCF7C9FF10BD10B55F487A
:1049E000007800F08000002854D101215C48FCF7D9
:1049F000ACFFD0B15948007800F04000A8B157484A
:104A0000007800F03F003F280AD15448007840F079
:104A10008000524908704FF6FF705249086004E068
:104A20004E480078401C4D49087002214C48FCF764
:104A30008CFF78B34948007800F0400078B14748CF
:104A4000007840F08000454908704548FCF71AFF9F
:104A50004449086000214248FCF763FD1AE0002049
:104A60003E4908703F4908603C48007840F04000EB
:104A70003A49087000213A48FCF738FB00213848D1
:104A8000FCF7F4FA02213648FCF74BFD01213448CB
:104A9000FCF72CFB3448007800F08000002873D12C
:104AA00001212F48FCF751FFD0B12F48007800F0CA
:104AB0004000A8B12C48007800F03F003F280AD100
:104AC0002948007840F08000274908704FF6FF70B1
:104AD0002649086004E024480078401C22490870F8
:104AE00004211F48FCF731FF20B31F48007800F075
:104AF000400078B11C48007840F080001A490870E6
:104B00001748FCF7C2FE1949086000211448FCF759
:104B10001AFD39E000201449087014490860124851
:104B2000007840F040001049087000210C48FCF764
:104B3000DDFA1DE028E0000040000020000C0040ED
:104B400044000020480000204C00002050000020BD
:104B500054000020580000205C000020600000206D
:104B60000000014064000020680000206C0000206C
:104B70000021DE48FCF77AFA0221DC48FCF7E3FC6E
:104B80000121DA48FCF7B2FAD948007800F0800039
:104B9000002854D10121D548FCF7D7FED0B1D44824
:104BA000007800F04000A8B1D148007800F03F0044
:104BB0003F280AD1CE48007840F08000CC490870E8
:104BC0004FF6FF70CB49086004E0C9480078401CEC
:104BD000C74908700821C548FCF7B7FE78B3C44838
:104BE000007800F0400078B1C148007840F08000C3
:104BF000BF490870BD48FCF74BFEBE490860002164
:104C0000BA48FCF7BAFC1AE00020B9490870B94963
:104C10000860B748007840F04000B54908700021AE
:104C2000B248FCF763FA0021B048FCF71FFA0221F2
:104C3000AE48FCF7A2FC0121AC48FCF757FAAE489D
:104C4000007800F08000002854D10121A748FCF72B
:104C50007CFED0B1A848007800F04000A8B1A6487A
:104C6000007800F03F003F280AD1A348007840F0C8
:104C70008000A14908704FF6FF70A049086004E069
:104C80009D480078401C9C49087010219748FCF70B
:104C90005CFE78B39848007800F0400078B1964800
:104CA000007840F08000944908709048FCF7F3FDCC
:104CB0009249086000218D48FCF779FC1AE0002039
:104CC0008D4908708D4908608B48007840F040009D
:104CD0008949087000218548FCF708FA00218348BB
:104CE000FCF7C4F902218148FCF761FC01217F48EF
:104CF000FCF7FCF91F217D48FCF738FE10BD10B50C
:104D00004FF400417E48FBF745FD0F20FDF74EF9BB
:104D10004FF400417A48FBF73FFD4FF4805178484B
:104D2000FBF738FD0F20FDF741F94FF4805174482F
:104D3000FBF732FD4FF480617148FBF72BFD0F202C
:104D4000FDF734F94FF480616D48FBF725FD022132
:104D50006C48FBF71FFD0F20FDF728F90221694879
:104D6000FBF71AFD4FF480716548FBF713FD0F2028
:104D7000FDF71CF94FF480716148FBF70DFD082128
:104D80006048FBF707FD0F20FDF710F908215D488B
:104D9000FBF702FD4FF480515B48FBF7FBFC0F2053
:104DA000FDF704F94FF480515748FBF7F5FC082153
:104DB0005548FBF7EFFC0F20FDF7F8F808215248A3
:104DC000FBF7EAFC10BD10B54FF400414C48FBF76F
:104DD000E3FC4FF480514A48FBF7DEFC4FF480615E
:104DE0004748FBF7D9FC02214648FBF7D5FC4FF4B6
:104DF00080714348FBF7D0FC08214248FBF7CCFC0C
:104E00004FF480514048FBF7C7FC08213E48FBF7B0
:104E1000C3FC10BD1CB501200821CDE900103B48A2
:104E2000B0F9002003231421002001F060FD0120CF
:104E30000821CDE900103548B0F9022003231E21D6
:104E4000002001F054FD01200821CDE900102F4879
:104E5000B0F9042003232821002001F048FD01209F
:104E60000821CDE900102948B0F90620032332219A
:104E7000002001F03CFD01200821CDE9001023486D
:104E8000B0F90820032314211E2001F030FD012079
:104E90000821CDE900101D48B0F90A2003231E2186
:104EA000084601F024FD01200821CDE90010174833
:104EB000B0F90C20032328211E2001F018FD012049
:104EC0000821CDE900101148B0F90E20032332214A
:104ED0001E2001F00CFD1CBD421802EBD2735B10CA
:104EE00000EE103AB8EEC00A704700000000014022
:104EF0007000002074000020780000207C0000205A
:104F000000100240000C024000080240BC010020DA
:104F100030B503460C46DFEDB90AB0EE600A002159
:104F200013F8325F1878401C03F8320923F8154053
:104F300093F83200904202DB002083F83200002117
:104F40000BE033F9110000EE900AF8EEE00A70EE83
:104F5000800AB0EE600A481CC1B29142F1DB00EE5B
:104F6000902AF8EE600A80EE201AFDEEC10A10EEDB
:104F7000900A30BD10B5F0EE400A9FEDA00AB0EEE9
:104F8000401A002290F89041631C80F8903100EBA9
:104F90008403C3ED000A90F890318B4202DB0023BA
:104FA00080F89031002209E000EB820393ED000AC3
:104FB00030EE010AB0EE401A531CDAB28A42F3DB3B
:104FC00000EE101AF8EE401A81EE210A10BD30B53D
:104FD0000B469FED8A0AF0EE400A002110F8325F7E
:104FE0000478641C00F8324920F8153090F83240FB
:104FF000944202DB002480F83240B0F90040804D3A
:105000002C80804D2C80012117E030F911407D4D1E
:10501000B5F90050AC4203DD30F81140794D2C80D9
:1050200030F91140764DB5F90050AC4203DA30F852
:105030001140734D2C804C1CE1B29142E5DB002104
:105040000BE030F9114000EE104AB8EEC00A30EE25
:10505000200AF0EE400A4C1CE1B29142F1DB694CAF
:10506000B4F90040664DB5F900502C4400EE104AEA
:10507000B8EEC00A30EEC00AF0EE400A941E00EE10
:10508000104AB8EEC01A80EE810A30BD70B50C46E9
:105090000021DFED5A0AB0EE600A4678751C4570B3
:1050A000851D25F816400578DDB100BF0BE0851D94
:1050B00035F9115000EE905AF8EEE00A70EE800AD1
:1050C000B0EE600A491C9142F1D300EE902AF8EE4E
:1050D000600A80EE201AFDEEC10A10EE905A2DB241
:1050E00045800578012D0CD1B0F9025041F2883687
:1050F000B54204DA45881D804588858001E08588B1
:105100001D804578954203D1012505700025457025
:1051100070BD70B50C460021DFED380AB0EE600AB4
:105120004678751C4570851D25F816400578002DBC
:105130004CD0C588ADB2344E3580344E3580012117
:1051400018E0851D35F91150304E3688B54204DD22
:10515000851D35F811502D4E3580851D35F91150BE
:10516000294E3688B54204DA851D35F81150264E91
:105170003580491C9142E4D300210BE0851D35F9AF
:10518000115000EE905AF8EEE00A70EE800AB0EE90
:10519000600A491C9142F1D31C4D2D881A4E368865
:1051A000354400EE905AF8EEE00A70EE600AB0EE78
:1051B000600A951E00EE905AF8EEE00A80EE201A82
:1051C000FDEEC10A10EE905A2DB245800578012DF2
:1051D0000CD1B0F9025041F28836B54204DA458864
:1051E0001D804588858001E085881D804578954231
:1051F00003D1012505700025457070BD0000000039
:10520000020100200001002006010020040100200E
:1052100000B58BB001210846FBF7DEFC012102201E
:10522000FBF7DAFC01210846FBF71FFD02208DF891
:1052300028008003099003208DF8290000208DF8B4
:105240002A0001208DF82B0009A9F748FBF726FA60
:1052500002208DF8280040F60840099003208DF8C0
:10526000290000208DF82A0001208DF82B0009A9C3
:10527000EE48FBF713FA01220F21EB48FBF799FAEE
:1052800001220321E948FBF794FA01220A21E748A9
:10529000FBF78FFA01220B21E448FBF78AFA002082
:1052A000ADF8200044F6206007905320ADF81800B8
:1052B0000020ADF81A0006A94FF08040FBF78DFEE4
:1052C0007020ADF804000220ADF810000120ADF808
:1052D000060001A98007FBF715FF01A94FF08040E8
:1052E000FBF749FF01A94FF08040FBF791FF01A9AF
:1052F0004FF08040FBF7F2FF0821C806FCF78FF85B
:105300000821C806FCF794F80821C806FCF79DF8A8
:105310000821C806FCF7A2F801218807FBF7C8FEA0
:1053200001218807FBF7E2FE0BB000BD00B58BB092
:1053300001210420FBF750FC01210220FBF7A6FC11
:1053400002208DF82800C020099003208DF8290044
:1053500000208DF82A0001208DF82B0009A9B448FF
:10536000FBF79CF903220621B148FBF722FA03223E
:105370000721AF48FBF71DFA0020ADF82000ADF87B
:105380001A0044F61F600790A720ADF8180000200F
:105390008DF8220006A9A748FBF71FFE0020039006
:1053A0007020ADF804000120ADF806000020ADF833
:1053B00008000220ADF810000820ADF812004001EE
:1053C000ADF814000020ADF8160001A99948FBF7CC
:1053D00099FE01A99748FBF7CEFE08219548FCF7F6
:1053E0001EF808219348FCF723F801219148FBF7A8
:1053F0005FFE01218F48FCF76AFA01218D48FBF717
:1054000075FE0BB000BD70B52DED068B0446204631
:1054100002F098FB41EC1A0B9FED870B53EC102B1D
:1054200002F0AFFA41EC190B9FED850B53EC102BFA
:1054300002F000FA41EC180B02F095FB05462846F5
:10544000BDEC068B70BD2DE9F05F07460C46154696
:105450001E463846FFF7D7FF80462046FFF7D3FFAA
:1054600081462846FFF7CFFF82463046FFF7CBFF45
:10547000834641464FF08040FBF79DFF49464FF081
:105480008040FBF79AFF51464FF08040FBF797FFB3
:1054900059464FF08040FBF794FFBDE8F09F70B590
:1054A00004460D462846FFF7AEFF0646012C06D0FF
:1054B000022C0AD0032C0ED0042C18D111E0314656
:1054C0004FF08040FBF777FF11E031464FF080400E
:1054D000FBF773FF0BE031464FF08040FBF76FFFA7
:1054E00005E031464FF08040FBF76BFF00BF00BF87
:1054F00070BD2DE9F04105460C462846FFF783FFB5
:1055000006462046FFF77FFF074631464948FBF72E
:1055100052FF39464748FBF750FFBDE8F0812DE9BF
:10552000F0478246884691461F465046FFF76BFF7C
:1055300005464046FFF767FF0646B9F1010F09D05F
:10554000B9F1020F24D0B9F1030F3FD0B9F1040F24
:105550001DD159E0B5420DDA2C4608E021464FF046
:105560008040FBF728FFB8B2FCF768FD641CB4422A
:10557000F4DD0CE02C4608E021464FF08040FBF7BC
:105580001AFFB8B2FCF75AFD641EB442F4DA69E0BF
:10559000B5420DDA2C4608E021464FF08040FBF77B
:1055A0000CFFB8B2FCF74AFD641CB442F4DD0CE019
:1055B0002C4608E021464FF08040FBF7FEFEB8B2D3
:1055C000FCF73CFD641EB442F4DA4BE0B5420DDA60
:1055D0002C4608E021464FF08040FBF7F0FEB8B2C1
:1055E000FCF72CFD641CB442F4DD0CE02C4608E012
:1055F00021464FF08040FBF7E2FEB8B2FCF71EFDFB
:10560000641EB442F4DA2DE0B5421DDA2C4608E0FF
:1056100021464FF08040FBF7D4FEB8B2FCF70EFDF8
:10562000641CB442F4DD1CE00000024000040240AF
:105630000008024000040140A3737E8AE33826403C
:105640000000000000407F402C4608E021464FF05B
:105650008040FBF7B6FEB8B2FCF7F0FC641EB44223
:10566000F4DA00BF00BFBDE8F0872DE9F0478146BE
:105670000F4690464846FFF7C6FE05463846FFF7F8
:10568000C2FE0646B5421DDA2C4618E021464FF010
:105690008040FBF790FE21464FF08040FBF78DFEE7
:1056A00021464FF08040FBF78AFE21464FF08040B4
:1056B000FBF787FE1FFA88F0FCF7C0FC641CB442BD
:1056C000E4DD18E02C4614E021464FF08040FBF763
:1056D00072FE21464FF08040FBF76FFE21464FF0EF
:1056E0008040FBF76CFE21464FF08040FBF769FEDF
:1056F000641EB442E8DABDE8F0872DE9F0472DEDED
:10570000088BB0EE408AF0EE608AB0EE419AF0EE7F
:10571000619A9FED6C0A28EE000A10EE101A0846F6
:1057200002F040FA41EC1B0B9FED670B53EC102B82
:1057300002F099F941EC1A0B02F015FA04469FEDBC
:10574000610A28EE800A10EE101A084602F02AFAC2
:1057500041EC1B0B9FED5C0B53EC102B02F083F91B
:1057600041EC1A0B02F0FFF905469FED560A29EEAF
:10577000000A10EE101A084602F014FA41EC1B0B56
:105780009FED510B53EC102B02F06DF941EC1A0B0D
:1057900002F0E9F906469FED4B0A29EE800A10EE69
:1057A000101A084602F0FEF941EC1B0B9FED460B68
:1057B00053EC102B02F057F941EC1A0B02F0D3F91D
:1057C0000746002C0EDD2820FFF71DFE81462046EF
:1057D000FFF719FE09EB000841464FF08040FBF748
:1057E000EAFD0DE02820FFF70EFE81462046FFF778
:1057F0000AFEA9EB000841464FF08040FBF7DBFDB5
:10580000002D0EDD8F20FFF7FEFD81462846FFF7B5
:10581000FAFD09EB000841464FF08040FBF7CDFD53
:105820000DE08F20FFF7EFFD81462846FFF7EBFDE7
:10583000A9EB000841464FF08040FBF7BEFD002E6B
:105840000EDD8520FFF7DFFD81463046FFF7DBFDEB
:1058500009EB000841464FF08040FBF7B0FD0DE03A
:105860008520FFF7D0FD81463046FFF7CCFDA9EB40
:10587000000841464FF08040FBF7A1FD002F0EDDF0
:105880002820FFF7C0FD81463846FFF7BCFD09EB35
:10589000000841464FF08040FBF793FD0DE02820C3
:1058A000FFF7B1FD81463846FFF7ADFDA9EB0008D3
:1058B00041464FF08040FBF784FDBDEC088BBDE80E
:1058C000F0870000000034436F1283C0CA210940F2
:1058D00030B589B004460D4601210220FBF7C5F919
:1058E00001210220FBF778F9022204218B48FAF704
:1058F00060FF022205218948FAF75BFF3020019002
:1059000002208DF8080000208DF80A0001208DF893
:105910000B0001A98148FAF7C1FEADF818500794B1
:105920000020ADF81A00ADF8200006A97C48FBF76E
:1059300054FB00231A4603217948FCF7C2F803A858
:10594000FBF759FF0620ADF8140003A97448FBF7D4
:105950001BFF01217248FBF7F5FF01221146704839
:10596000FBF7DCFF00216E48FBF780FB01216C4850
:10597000FBF7BCFB09B030BD30B589B004460D461D
:1059800001210420FBF771F901210820FBF724F91C
:1059900002220C216348FAF70CFF02220D21614814
:1059A000FAF707FF4FF44050019002208DF80800ED
:1059B00000208DF80A0001208DF80B0001A959483C
:1059C000FAF76CFEADF8185007940020ADF81A00F5
:1059D000ADF8200006A95448FBF7FFFA00231A4649
:1059E00003215148FCF76DF803A8FBF704FF0620DC
:1059F000ADF8140003A94C48FBF7C6FE01214A4844
:105A0000FBF7A0FF012211464748FBF787FF002163
:105A10004548FBF72BFB01214348FBF767FB09B027
:105A200030BD3F482430006800B200EE100AB8EEE6
:105A3000C00A3E4880ED000A3B482430006800B2AE
:105A400000EE100AB8EEC00A384880ED010A0020C6
:105A5000334924310860344924310860704700B567
:105A6000F0EE400AFFF7DDFF304890ED000A9FEDB1
:105A7000301AC0EE011A9FED2F0A21EE800A9FED29
:105A80002E1A20EE010A80ED040A90ED010A9FED26
:105A9000281AC0EE011A9FED270A21EE800A9FED19
:105AA000261A20EE010A80ED050A90ED040AB1EEF7
:105AB000400A80EE201A80ED021A90ED050AB1EE40
:105AC000400A80EE201A80ED031A00BD00B5FFF7F2
:105AD000A8FF1648D0ED000A184890ED000AB8EE6D
